S0140000416D6269656E74204C696768742E73333708
S113000000100020C9080000AB500000AB500000F5
S1130010AB500000AB500000AB500000AB500000F0
S1130020AB500000AB500000AB500000AB500000E0
S1130030AB500000AB500000AB500000AB500000D0
S1130040AB500000AB500000AB500000AB500000C0
S1130050AB500000AB500000AB500000AB500000B0
S1130060AB500000AB500000AB500000AB500000A0
S1130070093F0000AB500000AB5000000904000031
S1130080FF4C0000AB500000AB500000AB50000030
S1130090AB5000003D110000AB500000AB5000001D
S11300A0AB500000790C0000590C0000AB5000006C
S11300B0AB500000AB500000AB500000AB50000050
S11300C0AB500000AB500000AB500000AB50000040
S11300D0AB500000AB500000AB500000AB50000030
S11300E0AB500000AB500000AB500000AB50000020
S11300F0AB500000AB500000AB500000AB50000010
S1130100AB500000AB500000AB500000AB500000FF
S1130110AB500000AB500000AB500000AB500000EF
S1130120AB500000AB500000AB500000AB500000DF
S1130130AB500000AB500000AB500000AB500000CF
S1130140013800D0FCE770470348044B834202D0D7
S1130150034B03B1184770472016002020160020D7
S113016000000000064B0749C91A891048BF013135
S1130170491003D0044B0BB101481847704700BF26
S113018020160020201600200000000010B5064CA8
S1130190237843B9FFF7D8FF044B13B10448AFF3F6
S11301A000800123237010BD08150020000000000A
S11301B09C67000008B5054B1BB105490548AFF322
S11301C00080BDE80840FFF7CDBF00BF000000007D
S11301D0001000209C670000A3F5803A704700BF20
S11301E0174B002B08BF134B9D46FFF7F5FF00216B
S11301F08B460F461348144A121A05F0F0F80E4BBA
S1130200002B00D098470D4B002B00D098470020BE
S1130210002104000D000D48002802D00C48AFF363
S1130220008004F055F92000290004F031FD04F0A9
S113023041F800BF000008000000000000000000BA
S113024000100020001000203815002000000000DD
S11302500000000008B500F0DDF820B1BDE808405A
S1130260014804F0DDB808BD385F000007B56946F1
S113027001A800F0E5F8DDED017A38B9FDEEE77A82
S113028017EE903AC82B0BDC084800E0084804F04D
S1130290C7F84FF4FA7003F0D9FD03B05DF804FB1E
S11302A0B3F57A7FD4BF03480348F0E7515F0000F9
S11302B0525F0000545F0000575F000008B502F071
S11302C0D1FC01280ED10F4B04205A6E4FF4802329
S11302D00D49520358BF0D4A4B6601F5104108629F
S11302E058BF536603F00EF900F05EF904F071FF95
S11302F003F060F804F063FF03F06CF8BDE8084015
S113030000F046B9008000500090005000A000505A
S113031008B5044804F055FFBDE80840024800F061
S1130320BBBC00BFD864000038150020064B1B6816
S11303301A7A022A04D812B11B68044A136070475F
S1130340032AF9D0704700BF501500201810002070
S113035030B595B01D4D0DAC0FCD0FC495E8070019
S1130360292384E807000021194A0DF12600CDE96C
S11303700223184B0E22CDE904314FF48073069307
S113038005F02DF84FF4A021134B1448CDE90713C1
S11303900F238DF8243010238DF82530104B0DAA2F
S11303A00A9320230B9301238DF831300D4B07A9B9
S11303B0009302AB03F044FC044618B188210A48B8
S11303C004F081FE204615B030BD00BF8C5F0000F4
S11303D0000006500005000624000650801000208E
S11303E0091500201C1000205A5F000008B5FFF713
S11303F0AFFF28B1BDE808409C21024804F063BE69
S113040008BD00BF5A5F0000014803F0CFBC00BF25
S11304108010002008B5022000F022F808B100BEC8
S1130420FDE7054B186804F094FDB0FA80F3034A25
S11304305B09137008BD00BF4C150020291500206E
S1130440054B0A461B7823B1044B0146186800F09B
S1130450E7B91120704700BF291500204C15002072
S11304607FB54FF48063ADF80430ADF80830ADF8D3
S11304700C301F4B08281B88ADF810304FF00003D8
S1130480ADF814300ADC98420EDD013807280BD889
S1130490DFE800F00C160A1A0A0A0A2020281FD0E6
S11304A0402821D0102819D0E1210EE00421012296
S11304B00DEB010000F032FB002007B05DF804FBF7
S11304C00122042102A8F5E7B8210A4804F0FBFD43
S11304D00E20F2E70122042103A8EBE7CA21F4E786
S11304E00122042104A8E5E70122042105A8E1E78B
S11304F007600000A85F00007FB54FF4806300220E
S1130500ADF80430ADF80830ADF80C301E4B0828B7
S11305101B88ADF81420ADF810300ADC90420EDDD3
S1130520013807280BD8DFE800F00D170A1B0A0A68
S11305300A22202822D0402823D010281BD04FF490
S1130540AC710FE0042100220DEB010000F0E6FA8B
S1130550002007B05DF804FB0022042102A8F5E79F
S113056040F22F11094804F0AEFD0E20F1E70022FD
S1130570042103A8EAE740F24111F3E7042104A8A7
S1130580E4E7042105A8E1E707600000A85F000094
S113059008B5044804F015FE04F084FBBDE80840E7
S11305A000F008B8D8640000014804F00ABE00BF97
S11305B0D86400002DE9F0438DB0494E4FF0020994
S11305C0354605AC0FCD0FC495E807000125B38B64
S11305D0DFF82081ADF80430F38B368C84E8070013
S11305E04048414FADF80830ADF80090ADF80C60CC
S11305F004F0E7FD404604F0E4FD3C4B384605A911
S113060007938DF8225002F0B5FC2A46042168466F
S113061000F084FA2946002201A800F07FFA2A4655
S1130620042102A800F07AFA2A46042103A800F063
S113063075FA4FF002132E4C4FF44870C4F830365C
S1130640A3F58033C4F82C361C23C4F83496C4F8BC
S11306501C3603F073FC04A8ADF8106000F0CEFA69
S1130660142003F06BFC04A8ADF8106000F098FAB5
S1130670232003F063FC04A8ADF8106000F0BEFA78
S1130680B921384604F07DFD04A8ADF8106000F0EF
S113069087FA00226846114600F040FA002201A8B9
S11306A0114600F03BFA2A46002102A800F036FA6F
S11306B02A46002103A800F031FA384602F090FBE4
S11306C000234046C4F81C36C4F83036C4F82C362F
S11306D0C4F8343604F078FD0DB0BDE8F08300BFF3
S11306E00C600000D864000000C0055000127A00BD
S11306F000C00350C864000013B5B0F57A5F0C461F
S1130700114602DCB2F57A5F07DD074B072200933E
S1130710042304F001FB02B010BD044B0F2200932C
S113072020460923F5E700BFDC150020EC15002066
S113073010B586B00A4B8DF800100193012301A96E
S11307401446CDF808D0ADF80C300492ADF814304E
S113075000F014FB10B1FF233120237006B010BD4C
S1130760AA00040000B589B00C4B8DF8081003935F
S113077002AB04930223ADF8143001AB06930023BB
S113078003A98DF80920ADF81C3000F0F7FA002811
S113079014BF3120002009B05DF804FBAA00010059
S11307A070B58AB0104C8DF8081002A905940C4657
S11307B09D18AB4212D101AB089300230132D2B28F
S11307C005A90694ADF81C20ADF8243000F0D6FA43
S11307D0002814BF312000200AB070BD13F8016B4B
S11307E001F8016FE5E700BFAA00010010B586B06B
S11307F08DF800100121094CADF80C1001A90194E9
S1130800CDF808D00493ADF8142000F0B7FA00280E
S113081014BF3120002006B010BD00BFAA000400A0
S11308202DE9F04188B005460F46164604F051FB09
S11308300446C82003F00AFB122128460DF10B02DE
S1130840FFF776FF9DF80B800444B8F10F0F26D113
S113085003A9284604F0DFFBDDE906210598FFF72C
S11308604BFF07EE900A9FED0F7AF8EEE77A67EEFA
S1130870877A0D4BC7ED007A424600930499022310
S1130880002004F049FA07EE900AF8EEE77A2046D1
S113089067EE877AC6ED007A08B0BDE8F0810520DE
S11308A0C8E700BF00008039D41500200348044A7B
S11308B00449121A921004F0F9BB00BF4001000071
S11308C0400100003815002008B500F02FF8FFF7AC
S11308D0EDFF124B12498B4212D30020114B1249E7
S11308E08B4218D3FFF77CFC186850F822405868F4
S11308F040F82240013298688242F5D30C33EAE78B
S11309000022F8E71C6844F8220001325C68A24225
S1130910F8D30833E4E70022F8E700BFA467000037
S1130920B0670000B0670000B067000070B54FF416
S11309300041134B134A144D9A60D3F8882005F5EF
S1130940005442F47002C3F88820104A91664FF0B4
S1130950FF3222664FF6DF7262660222C3F8D020AD
S1130960BFF34F8FBFF36F8F4FF44036032002F075
S113097093FD0320E66002F05DFD2E6170BD00BFB3
S113098000ED00E0000000000080004400900050F2
S1130990014B1860704700BF68150020054B1860B4
S11309A0054B1B6F03F00703032B01D104F048BF71
S11309B0704700BF701500200080005007B5002369
S11309C02948019304F0FDFB4FF4407301220421F4
S11309D06846ADF8003000F0A1F80122234B052051
S11309E0C3F8442401A905F005FA002839D1204BA5
S11309F0D3F8F02042F00102C3F8F020D3F8FC2031
S1130A0042F08072C3F8FC201A4AA3F55D431A60D1
S1130A10019B194A03F5D52303F2FC43B3FBF2F31C
S1130A20164A013B13610223C2F8F0304FF480737D
S1130A30C2F804334FF06043114AC3F8B02F114A8F
S1130A40C3F8802ED3F8002E42F48072C3F8002E2F
S1130A50FF2283F82020D3F8002E22F48072C3F8FA
S1130A60002E03B05DF804FBD864000000D00350EE
S1130A7000ED00E0FF030040F8590D00000004E021
S1130A8055CEACC5090001002DE9F0410C25044602
S1130A904FF00108124E0CB314F001000BD00020EB
S1130AA024F0010405FB00625768002FF3D091681D
S1130AB0C0B2B847EFE72246013020284FEA52027D
S1130AC001D0D307F8D508FA00F20F2824EA02046B
S1130AD0E8D9103805FB0062B432E5E7BDE8F081DF
S1130AE09810002008B50C4804F06BFB192002F0A4
S1130AF0BBFC28B1192002F0CFFC192002F09AFCAB
S1130B001A2002F0B1FC28B11A2002F0C5FC1A2008
S1130B1002F090FC002008BDD86400002DE9F041EB
S1130B200E461746044638B991211A4804F0CBFA08
S1130B3022252846BDE8F0810F290BD803787BB124
S1130B40013BDBB2022B05D8134AD35C6278D34055
S1130B50DB0708D495210F4804F0B5FA2125E8E70E
S1130B6040F2FF13F2E70D4BD3F810532DB1992146
S1130B70084804F0A8FA0225DBE705F035F98046B9
S1130B803A462046314602F093FA404605F027F9EA
S1130B90CFE700BF2E6000008560000000C0035056
S1130BA038B5044628B91348E22104F08CFA22200F
S1130BB038BD03787BB1013BDBB2022B05D80E4A6A
S1130BC0D35C6278D340DB0708D40A48E62104F0FA
S1130BD07AFA2120ECE740F2FF13F2E705F004F97A
S1130BE00546204604F0BAFE284605F0F8F8002031
S1130BF0DEE700BF2E6000008560000038B50446C3
S1130C0028B91348FA2104F05EFA222038BD03788B
S1130C107BB1013BDBB2022B05D80E4AD35C627870
S1130C20D340DB0708D40A48FE2104F04CFA212003
S1130C30ECE740F2FF13F2E705F0D6F8054620464C
S1130C4002F0FEF9284605F0CAF80020DEE700BFEE
S1130C502E6000008560000008B502F01FFA054B05
S1130C6000F0553020F05020C3F82004BDE80840BF
S1130C70FFF70ABF00E0035008B502F00FFA054B76
S1130C8000F0AA3020F0A020C3F82004BDE80840FA
S1130C90FFF7FABE00E0035070B586B0044618B9F9
S1130CA0AC21314804F00FFA2368304A934207D04C
S1130CB02F4A934250D12F4804F083FA012503E0D0
S1130CC02D4804F07EFA0025A3880122ADF80030F7
S1130CD0E3880A216846ADF80430FFF71FFF0122BC
S1130CE00A2101A8FFF71AFF0A266846FFF786FFC4
S1130CF0642003F023F96846FFF752FF642003F0F1
S1130D001DF9013EF1D103212B0103F1A04202F5AB
S1130D107032C2F890146079217903F1A04341EA5A
S1130D200041C2F89414E179A27903F5703342EAE0
S1130D300142C3F8982440F20113ADF80830E36887
S1130D4020680493A36802A90393237C8DF81430CC
S1130D5001F004FC06B070BDD121034806B0BDE823
S1130D60704004F0B0B900BF886000000000015A70
S1130D7000800650D0640000D464000038B50546F5
S1130D8001F040FD044C012801D1013C00D138BDE3
S1130D90284601F017FCF6E7E19304002DE9F04F33
S1130DA085B09A46554B06461B780F461546DDF826
S1130DB03C909DF844B0DDF85080002B00F0978003
S1130DC0072A00F296800E9B002B00F09280B9F166
S1130DD0000F00F08E80129BB3F5006F00F3898042
S1130DE0012803D1109B002B00F08380444B03EBBC
S1130DF005131B7B002B7ED0424C10220021684639
S1130E0004F0EDFA04EB45141022A7BB3946204642
S1130E1004F0E5FA43F210036380BBF1000F03D141
S1130E20E37843F00303E370364A0E9B02EB451C60
S1130E30CCE90193129B6901581E9DF84C30C0F314
S1130E400A0003F003039B0643EA001E53582E488E
S1130E50012E00EA03004EEA0003CDF800A053502F
S1130E6017D0B8F1000F2ED19CF8023068F30413A8
S1130E708CF8023027E00021204604F0B0FA4FF449
S1130E8044736380BBF1000FCED1E37843F03003A9
S1130E90C9E713230CF1100ECCF80C309CE80F00BA
S1130EA08EE80F006FF00301DCF81C20109B61F347
S1130EB09F02012FCCF81C20CCF8143003D1CCF8BD
S1130EC01890CCF8043000270D4A290102EB0513D1
S1130ED042F80180159A28465A60694622469F6066
S1130EE05E7301F06DFD384605B0BDE8F08F07482C
S1130EF0FAE70748F8E70748F6E700BF2A15002095
S1130F0000130020001200200F80FFF3028000F085
S1130F10018000F0078000F038B5124B05461B78BD
S1130F20DBB1E0B104F060FF0F4A00231146147BEB
S1130F3054B92B6001251A0101EB03131D738C5066
S1130F4004F04DFF204638BD0133082B02F1100296
S1130F50EDD104F044FF0548F5E70548F3E70548FB
S1130F60F1E700BF2A15002000130020048000F0E0
S1130F70028000F0018000F038B504F035FF002352
S1130F8005460B4A147B6CB90133082B02F110029D
S1130F90F8D101F097FC074B28461C7004F01FFFA2
S1130FA0204603E0284604F01AFF034838BD00BF7A
S1130FB0001300202A150020058000F010B50D4B09
S1130FC004461B7893B1072812D804F00DFF0A4B8E
S1130FD003EB04131A7B2AB100241C7304F0FFFEF4
S1130FE0204610BD04F0FBFE0448FAE70448F8E785
S1130FF00448F6E72A15002000130020068000F0BC
S1131000028000F0018000F013B5154B186800232E
S113101001908DF8043004F0E7FE124B1C7824B1E3
S113102004F0DDFE104802B010BD01221A7004F075
S1131030D6FE0E4B01A81C731C7783F82C4083F852
S11310403C4083F84C4083F85C4083F86C4083F860
S11310507C4008238DF8073001F06AFC2046E2E763
S1131060E36000002A150020038000F00013002034
S1131070F8B50D4D2D7885B1072810DC0B4D060110
S113108005EB0014277B67B1AB510025069BA560D7
S1131090636001F095FC2846F8BD0548FCE7054867
S11310A0FAE70548F8E700BF2A15002000130020DE
S11310B0028000F0018000F0078000F008B50A4AC1
S11310C012785AB107280BD8084A02EB00131B7B8D
S11310D043B1002101F00CFC002008BD0448FCE7EA
S11310E00448FAE70448F8E72A1500200013002012
S11310F0028000F0018000F0078000F008B50A4A81
S113110012785AB107280BD8084A02EB00131B7B4C
S113111043B1012101F0ECFB002008BD0448FCE7C9
S11311200448FAE70448F8E72A15002000130020D1
S1131130028000F0018000F0078000F02DE9F0410A
S1131140174B1F6D5B6D1F4000D5FEE70126002580
S1131150144CDFF85880374218D02368C8F8506020
S1131160A3B1A168284601316268A1609847637BF6
S1131170012B0BD150B90C4B03EB45131A7B60F3D5
S113118041021A731A7F60F341021A770135082D60
S11311904FEA460604F11004DDD1BDE8F08100BF3A
S11311A0000004500013002000120020002004500E
S11311B0044BD3F88420D206FBD4D3F88400C0F3C4
S11311C0811070470040005038B5104B0546D3F8E5
S11311D000310C4603F00303022B0BD0032B0DD07C
S11311E0012B0FD104F046FB032305B1286004B1A1
S11311F0236038BD04F048FB0823F6E704F040FB05
S11312000723F2E701230020EFE700BF008000502E
S113121038B5104B0546D3F820310C4603F00303D0
S1131220022B0BD0032B0DD0012B0FD104F0E2FACB
S1131230052305B1286004B1236038BD04F01AFB0E
S11312400323F6E704F012FB0223F2E70123002054
S1131250EFE700BF0080005038B5104B0546D3F8C7
S113126040310C4603F00303022B0BD0032B0DD0AB
S1131270012B0FD104F0A4FD092305B1286004B1AA
S1131280236038BD04F000FB0823F6E704F09BFD5F
S11312900B23F2E701230020EFE700BF008000509A
S11312A038B5104B0546D3F860310C4603F0030300
S11312B0022B0BD0032B0DD0012B0FD104F080FD9A
S11312C0092305B1286004B1236038BD04F0DCFAB9
S11312D00823F6E704F077FD0B23F2E7012300204F
S11312E0EFE700BF0080005038B51A4B0546D3F82D
S11312F024010C4600F00700062821D8DFE800F09E
S1131300280410181C0C140004F074FA052305B109
S1131310286004B1236038BD04F06CFA0623F6E7B4
S113132004F0A8FA0323F2E704F0A4FA0423EEE796
S113133004F09CFA0223EAE704F0A2FA0723E6E7A2
S1131340054840F6DB7103F0BEFE00231846DEE7D5
S11313500123DCE700800050E7600000F7B50027B8
S1131360114B0197D3F88041064604F00304012C85
S11313700D4608D0022C12D041F2E6310B4803F09E
S1131380A2FE3C4604E0394601A8FFF741FF0F24C2
S11313900EB1019B336005B12C6003B0F0BD04F0C5
S11313A065FA0190F4E700BF00800050E760000098
S11313B038B5164B0546D3F800020C4600F007007A
S11313C0042819D8DFE800F020030B0F130004F001
S11313D0F7FC092305B1286004B1236038BD04F08B
S11313E053FA0823F6E704F0EEFC0B23F2E704F0CB
S11313F027FA0E23800AEDE7054841F2A44103F0E1
S113140062FE00231846E5E70123E3E7008000506D
S1131410E760000038B5124B0546D3F840320C465D
S113142003F00303022B0BD0032B0DD0012B0FD1A0
S113143004F0C6FC092305B1286004B1236038BD5B
S113144004F022FA0823F6E704F0BDFC0B23F2E7CC
S1131450044841F22F4103F036FE00231846EAE720
S113146000800050E760000008B5334B98424FD02D
S113147027D8324B984245D017D8314B98423ED0AA
S11314800AD838B12F4B984239D041F2BB312E489B
S113149003F019FE002034E02C4B98422FD02C4B43
S11314A09842F2D12B4B586E2BE02B4B98422CD008
S11314B003F5371303F5D8639842E6D1254B986FAB
S11314C01FE0264B98422FD00CD8254B984223D0AE
S11314D0244B984224D0244B9842D6D11D4BD3F8A8
S11314E084000EE0214B984222D003F5740303F5E7
S11314F010539842C9D1174BD3F8980001E0154B0B
S1131500986D08BD134B186FFBE7124B586FF8E743
S1131510104BD3F88000F4E70E4BD3F88800F0E7C3
S11315200C4BD3F88C00ECE70A4BD3F89000E8E7B7
S1131530084BD3F89400E4E780BA8C01405DC60000
S113154080841E0040420F00E760000000093D0057
S1131550C0CF6A000080E00F0024F400007E560330
S113156080D54302006CDC020048E8010090D003FF
S113157010B40F4C0B46D4F8204204F00304012CA1
S11315800ED0022C10D008B1002101600BB1002252
S11315901A6041F2050107485DF8044B03F093BD5E
S11315A05DF8044BFFF734BE5DF8044BFFF754BEFF
S11315B000800050E760000010B5B0F5207F34D003
S11315C009D8B0F5007F2AD003D898B1B0F5C07F10
S11315D010D0002421E0B0F5607FFAD1154BD3F888
S11315E08030C3F301149B0617D5032C15D04FF498
S11315F026710FE00F4B1C6F230B13F00E0FC4F377
S113160003340AD0072C08D00F2C06D0032C04D0A6
S11316104FF42271084803F056FD601C10BD054BC1
S1131620D3F89040C4F30464F7E7024B1C6FC4F38F
S11316308024F2E700800050E760000010B54FF40A
S113164000320E4B04469A660020FFF7B5FF604354
S113165041F671320A4C0B4BA04294BF002001208A
S1131660D969DA639A6822F4401242EA00529A6015
S1131670CA0344BF0022DA6310BD00BF00900050CB
S1131680005A62020000035070B5460904460D4634
S11316900ED140F235310D4803F015FD334604F008
S11316A01F047DB103F580530122A2401A6070BD6E
S11316B0012E05D0064B074A022E18BF1346EEE74B
S11316C0054BECE703F50053EEE700BFE7600000CD
S11316D068800050608200506480005030B585B04E
S11316E00021B0F5807F0446019100F00F8100F2E3
S11316F09F80612800F294801F2805D8002840F0BC
S1131700918004F09DF8DEE0A0F12004412C00F269
S1131710898001A353F824F003170000CF180000B8
S113172003170000CF180000F9180000F918000092
S1131730F9180000F9180000CF180000CF180000B5
S1131740A51800005F1800002F19000039190000C7
S11317505F180000CF180000CF180000CF18000059
S11317602518000025180000251800002518000081
S11317702518000025180000031900008118000036
S1131780CF180000CF180000CF1800004D1900003A
S113179043190000CF180000251800002518000088
S11317A02518000025180000251800002518000041
S11317B02518000025180000251800002518000031
S11317C02518000025180000251800000317000044
S11317D0251800000317000003170000031700007A
S11317E0F91800002518000025180000251800002D
S11317F025180000251800002518000025180000F1
S113180025180000251800002518000025180000E0
S11318102518000025180000031700000317000016
S113182080284ED040F2A4414B4803F04CFC4BE0DE
S1131830B0F5A06F65D028D8B0F5607F52D019D824
S1131840B0F5007F4ED004D8B0F5C07F3FF459AF57
S1131850E8E7B0F5207F3AD0B0F5407FE2D103F05D
S1131860EFFF04464FF42070FFF7A6FEB4FBF0F43C
S1131870640835E0B0F5806F3ED0B0F5906FD1D1FB
S1131880002101A8FFF730FD1EE0B0F5E06F58D04D
S11318900DD8B0F5C06F4AD0B0F5D06F4CD0B0F5CC
S11318A0B06FBFD1002101A8FFF758FD0CE0B0F5DF
S11318B0F06F4BD0B0F5086FB4D101A8FFF784FCEA
S11318C002E003F09DFF0190019805B030BD03F0E4
S11318D0B7FF04464FF42070FFF76EFEB4FBF0F43C
S11318E00194F1E703F08CFF05462046FFF764FE00
S11318F0B5FBF0F50195E7E7002101A8FFF788FCA7
S1131900E2E7002101A8FFF733FEDDE74FF0E02313
S113191002911B695B0705D503F092FF0290029BBD
S11319200193D1E703A902A8FFF796FCF7E700218A
S113193001A8FFF791FCC7E7002101A8FFF738FDD4
S1131940C2E7002101A8FFF765FDBDE7002101A85A
S1131950FFF7A6FCB8E700BFE760000008B58020E9
S1131960FFF7BCFE034B98429EBF4FF48032024BFC
S11319701A6708BD005A620200A000501FB5034652
S11319800020B3F5807F019077D026D8382B00F063
S11319908A800BD8243B092B0FD8092B0DD8DFE8FC
S11319A003F0676767670C0C5F0C357D522B5FD0C3
S11319B006D83D2B39D03E2B7AD040F289514BE0EA
S11319C0802BFAD13D4B1B6F03F00703013B032B24
S11319D040D8DFE803F03D36393BB3F5D06F5DD036
S11319E019D8B3F5A06F5ED00AD8B3F5806F3FD095
S11319F0B3F5906FE1D1002001A9FFF775FC33E046
S1131A00B3F5B06F2CD0B3F5C06FD6D1002001A9C7
S1131A10FFF722FC28E0B3F5006FECD00AD8B3F549
S1131A20E06F45D0B3F5F06FC7D1002001A9FFF7EF
S1131A3037FC19E0B3F5086FBFD101A9FFF7C4FB68
S1131A4012E0052301930FE00323FBE70723F9E7E3
S1131A500223F7E740F2D641194803F034FB03E0D0
S1131A60002001A9FFF77AFC019805B05DF804FB9A
S1131A70002001A9FFF7CCFBF6E74FF0E02302902A
S1131A801B695B0705D503F0DBFE0C230393039B63
S1131A90D8E703A902A8FFF7DFFBF8E7002001A9B4
S1131AA0FFF786FCE0E7002001A9FFF761FDDBE713
S1131AB0002001A9FFF7AEFCD6E700BF008000506C
S1131AC0E76000004FF48032074B0849586E03F575
S1131AD080535A660B6A23F001030B62C3035CBF95
S1131AE0034B5A66704700BF0080005000C0075087
S1131AF000A00050F8B5036804460F2B04D940F643
S1131B008A316C4803F0DFFA63680F2B04D940F67E
S1131B108D31684803F0D7FAA3680F2B04D94FF42A
S1131B203961644803F0CFFA237B0F2B04D940F6C4
S1131B309331604803F0C7FA637B0F2B04D940F656
S1131B4096315C4803F0BFFAA37B3F2B04D940F6DF
S1131B509931584803F0B7FAE37B3F2B04D940F698
S1131B609C31544803F0AFFA2369032B04D940F69F
S1131B709F31504803F0A7FA6369032B04D940F658
S1131B80A2314C4803F09FFAE369012B04D940F6D3
S1131B90A531484803F097FA8020FFF7EFFE0328A9
S1131BA000F087804FF40022434B02215A6645F629
S1131BB00E03424AC2F88030414B9962012103F579
S1131BC080539962936DD903FCD4D4E900131B05A7
S1131BD043EA0163E17B94F820500B43217BE77EC9
S1131BE043EA0143617B6D0143EA0133A17B43EA8C
S1131BF0811313619169D4E904031B0643EA8063EA
S1131C0001F000410B43A17E94F823000B43217E95
S1131C1043EA0143617E43EA01239361136AE6695F
S1131C2023F00D0394F8221043EA8703002E2DD1EC
S1131C301362966A94F8213045EA031326F03305BB
S1131C402B4343F0010393621E4D1C4B9A6D35EAFE
S1131C500202FBD102221A4DAA621A659A6D520041
S1131C60FCD41A69A56822F4700242EA05521A618A
S1131C704FF00042124B9A6119B9022203F58053C6
S1131C809A6278B90122104B9A620BE0334343F015
S1131C9008031362936A23F0330303432B4343EA99
S1131CA04103936294F824301BB1044B074AC3F8F0
S1131CB08020F8BDE76000000090005000C0005094
S1131CC000D000500300014000E00050F1A7FFFFE6
S1131CD0014B93F9000070472C15002010B54368A0
S1131CE00446072B04D940F6E6512A4803F0EBF9E1
S1131CF0A368032B04D940F6E851264803F0E3F91E
S1131D002378032B04D940F6EA51224803F0DBF987
S1131D1094F90130002B04DA40F6EC511D4803F02D
S1131D20D2F94FF480011C4A637851664FF4D151C3
S1131D30022002F5B832516218494F2B48604FF027
S1131D40010028BF4F2301F5805148601169C90380
S1131D50FCD4217843EA01235361D4E901131B0124
S1131D6043EA0123617B0B43217B43EA41039360F4
S1131D70E37BA17B1B0143EA4113617C0B43217C80
S1131D8043EA41035360A37C13B16FF4D15353620C
S1131D9010BD00BFE760000000900050001002502A
S1131DA0014B1880704700BF12160020014B1880A9
S1131DB0704700BF1016002008B54FF40012184BEE
S1131DC05A660223174A5360936813F48033FBD195
S1131DD0012822D103F04EFD134B984215D003F590
S1131DE0122303F5F863984213D0104B00EB8002E2
S1131DF0400AB3FBF0F3520A0A49CA620B63012397
S1131E004B620022074B5A6008BD45F67A13084A14
S1131E10F2E745F61A03074AEEE75362F1E700BF1B
S1131E20009000500040025000F04902646666666B
S1131E30D8B80500BBCF050010B5B0F5207F65D03C
S1131E400ED8B0F5007F4FD003D800B3B0F5C07FF3
S1131E501DD04FF44671BDE81040344803F033B947
S1131E60B0F5607FF5D14C1E012C06D9042904D0AD
S1131E7040F2F9212D4803F026F92D4AD2F880309A
S1131E8023F0300343EA0413C2F8803010BD4C1E23
S1131E90012C0AD9102903D8264BCB40DB0704D4E4
S1131EA040F2CB21214803F00EF903F03EF903F090
S1131EB04AF94FF48031204B1D4A1967136F23F4FC
S1131EC0704343EA0433136703F0BAFC0446FFF794
S1131ED06FF9C0F10201204603F02FF900F046F833
S1131EE0BDE81040FFF73ABD4C1E1F2C04D94FF437
S1131EF043710E4803F0E7F80D4AD2F8903023F00E
S1131F00F85343EA0463C2F89030BFE74C1E012C37
S1131F1004D940F21231054803F0D5F8044A136F8E
S1131F2023F4806343EA84231367AFE7E760000088
S1131F3000800050100101000090005008B50121FC
S1131F40022000F0DDF84FF42070FFF735FB054B5D
S1131F50187003F0EAF803F0F6F84FF48032024BFD
S1131F601A6708BD2B1500200090005008B54FF4E7
S1131F70C070FFF7B3FBBDE808400449884294BF32
S1131F80012102214FF42070FFF756BF80F0FA02BE
S1131F9038B5044603F054FC0546FFF709F9C0F1CF
S1131FA00201284603F0C9F80121002000F0FCF8E2
S1131FB02CB1FFF7DBFFBDE83840FFF7CFBC034B84
S1131FC04FF420701978FFF737FFF4E72B15002042
S1131FD02DE9F0410546FFF747FA431E0333044653
S1131FE004D940F6E2113B4803F06DF84FF4C022E7
S1131FF0394B5A6603F598335A68012A04D1374994
S11320004A609A699207FCD18020FFF7B7FC052843
S113201007D103F08AF803F096F84FF480322E4B80
S11320201A672F4B24F040749D4239D02D4B9D42AA
S113203039D003F0DFFB8542064603D90121284647
S113204000F0B2F8284FFB6813F0060FFBD1D7F865
S11320500880BC60BB68634013F4F81F26D128468F
S1132060FEF796FC8020FFF789FC052814D103F0C5
S1132070E7FBA842044604D940F63B21154803F087
S113208022F8FFF795F8C0F10201204603F055F855
S1132090FFF76CFFFFF762FCAE4213D2BDE8F0819C
S11320A044F00074C5E744F08074C2E740F62A2186
S11320B0084803F008F88020C7F80880FFF75EFCA2
S11320C0052805D0BDE8F0410121002000F06CB8DE
S11320D03546CCE7E76000000090005000E0015076
S11320E040420F0080841E0000000150034A017921
S11320F0D36E23F030030B43D36670470040005087
S1132100F8B50446244BD3F88420D006FBD4D3F886
S11321108430C3F381139C423CD003F071FB012C47
S113212005460BD11D4B984204D94FF4F7611C4866
S113213002F0C9FF0121284602F0FFFF03F04BFE25
S11321404FF00072174B07465A66204603F000F81A
S11321504FF48063104E621E93403367736E9A018E
S113216003D4D6F884309B060AD5384603F02EFEF5
S1132170022C0FD12846BDE8F840002102F0DDBF53
S1132180D6F884309906E9D540F2C671044802F0C5
S11321909AFFE3E7F8BD00BF00400050005A620216
S11321A0376100000060005010B50C4608B903F018
S11321B027FB074B21461B783BB1064B984204D8BA
S11321C00120BDE81040FFF79BBF0220F9E700BFE4
S11321D02D150020005A620238B54FF00042264BFC
S11321E026495A6601224A604AF6CD3103F50B238B
S11321F05D6C1964154030BB9968C9070BD4002481
S113220001221F4B5A6015B11E4B1F4A1A6402F07B
S1132210A0FF204638BD1A498A601C4AD96ACC07F7
S113222005D4904201D10724EAE70130F6E7904251
S1132230E5D1F8E70132DC6A14F0080406D08A42DA
S1132240F8D10724DFE700221049F4E78A42F8D0E6
S113225020220B4B0B495A620122A3F580539A604A
S113226023460A4A486A800603D49342E9D00133DC
S1132270F8E79342C7D1E4E70090005000500950BA
S113228000600950004009503254FFFF40420F00E3
S113229038B54FF00042174B174C5A66012203F52C
S11322A00C235A604AF6CD33656C2364437893401B
S11322B01343124AD363C3788178A2689B0043EA2C
S11322C0011322F074021343A3600279837943EA71
S11322D0022323614279C37943EA022363610078CC
S11322E0FFF77AFFEB0744BF054B236402F031FF8D
S11322F0012038BD009000500040095000400050BB
S11323003254FFFF38B5032804460D4605D80B4B5D
S113231033F81030CB40DB0704D440F28241084844
S113232002F0D1FE30220123544341F2100204F1A1
S1132330A044AB4004F57034A35038BD2A620000B9
S11323408761000038B5032804460D4605D80B4BB9
S113235033F81030CB40DB0704D440F25341084833
S113236002F0B1FE30220123544342F2100204F180
S1132370A044AB4004F57034A35038BD2A62000079
S113238087610000F8B5032804460D4616461F462B
S113239005D81C4B33F81030CB40DB0704D44FF482
S11323A0B071194802F08FFE26B129462046CFB1FC
S11323B0FFF7A8FF04EB4403072D4FF00F014FEA8A
S11323C0031312D8A80006FA00F281400F481844FB
S11323D002F0C0FEAEB92946204677B1BDE8F84008
S11323E0FFF790BFFFF7AEFFE4E7A5F10800800018
S11323F006FA00F281400648E9E7BDE8F840FFF735
S1132400A1BFF8BD2A620000D861000004C00350D7
S11324100CC00350F8B506460F461546002A6AD08C
S113242003F00304836823F44073836003F0D3FC54
S1132430B26882EA042303F440735340B36003F0A8
S1132440C5FC37B92D4B9E420DD12E20FFF746F91E
S11324500746B3689A0717D5012C1BD0022C27D046
S113246064B9274B17E0274B9E4201D12F20EDE79B
S113247040F22F11244802F026FEB3684FF4B271E3
S1132480214802F020FE08E0012C13D0022CE7D1F1
S11324901E4B00E01E4B9F42F0D91E4B1B5D6B434D
S11324A00AD140F27511BDE8F840174802F00BBE9E
S11324B0194BF0E7194BEEE7A3EBC504013C3C4490
S11324C0B4FBF3F4013C0CD540F27B110E4802F04E
S11324D0FAFD4FF4BE710C4802F0F5FDB368B46127
S11324E0F8BDB4F5007FF4D2B3689B07F7D5002C90
S11324F008BF0124F3E740F21511D4E70000015AA4
S113250080841E000080065032620000002D3101DC
S1132510404B4C0082620000809FD50040548900EB
S113252038B50B4B044698420D4607D0094B9842E8
S113253004D040F29511084802F0C5FD043425B1D9
S113254004F580540123236038BD04F50054F9E7F1
S11325500000015A008006503262000038B5154B65
S1132560044698420D4607D0134B984204D04FF4CA
S1132570D571124802F0A7FD0023114A236404F523
S11325800053DA636A7804F108037AB903F58053D7
S113259002221A602046D5E901122B7BFFF73AFF8D
S11325A020462978BDE83840FFF7BABF03F5005349
S11325B0EEE700BF0000015A0080065032620000BE
S11325C0FFFF1F0070B5894B98420AD0884B984290
S11325D01DD0884840F2012102F075FD6FF0030020
S11325E070BD854B9968C26B12F4C06F15D091050C
S11325F00FD5FD225A7009221A700022026493F941
S11326000110012900D15A7093F90100E8E77B4BCE
S1132610E8E75605EFD5FE22ECE71C78082C00F21B
S1132620E180DFE814F009001F004500530070004A
S11326307E009C00A700D6004C880A88E5060AD5CF
S1132640120A02F0060242F0F002012119704263FC
S1132650C1600120C4E702F0FE02A10748BF42F0B6
S11326600102F2E7160608D5802100F50052D16375
S11326704FF608721A80022318E05506E9D5402463
S113268000F50052D4634A88D40604D502221A7095
S11326900B784363DDE796076AD507221A701B7926
S11326A001EBC3031B89012BD3D10823C360D0E7FB
S11326B01506D9D45406CCD5402400F50052D46371
S11326C04A88920754D503221A708CE74C880A88EA
S11326D0E60643BF120A02F0060242F0F00202F0DC
S11326E0FE02650709D51C7942F0010201EBC40121
S11326F00989012904BF0821C1600421197001233B
S1132700C3604263A5E71406AED45206A1D54024A3
S113271000F50052D4634A88560729D507221A7057
S113272097E71A795D8801EBC2042689AE420FD877
S113273000240132D2B21A715C804C886507C2D47D
S1132740E40702D4012A7FF64EAF08221A7092E7FA
S11327506268691C5980525D42630622DFE71606EF
S113276082D455067FF575AF402400F50052D4633A
S11327700522A9E794067FF56CAF456A204C4669AB
S11327801A793440B4F5003F04BF466A4FF400564A
S113279001EBC20100F500540A8908BFE663202654
S11327A0E6635C88A24281BF4968661C5E800D5561
S11327B059888A42C9D90424012AC46004D0013A40
S11327C0914201D10822C2601A78092A3FF415AF58
S11327D03FE7D2057FF53DAF4FF4807100F500521D
S11327E0D16308E74FF609321A8006E70000015A60
S11327F00080065032620000801300208C130020F9
S11328002000020038B5294B044698420D4607D1F2
S113281021B940F26A31264802F055FC254B13E0F9
S1132820254B98420DD040F26931214802F04BFC0F
S113283025B940F26A311E4802F045FC6FF00300EE
S113284038BD00292AD01D4B2269D00744BF20225D
S1132850E2606A88910702D529890029EED05207DF
S113286002D52A8A002AE9D04FF480721A60002225
S11328709D601A71C023E3606369DB0514D42022D0
S113288004F50053DA630E4A2046DA63236C43F4FA
S1132890FC632364BDE83840FFF794BE40F26A311C
S11328A0034802F010FCCEE7636AE5E70000015A32
S11328B03262000080130020008006508C13002038
S11328C0FFFF1F0010B5152000F096FD0024FF2225
S11328D0064B21465C6520209A625C60FEF7D4FEBC
S11328E02146BDE810402120FEF7CEBE0000045072
S11328F038B5072804460D4603DD7721084802F061
S1132900E2FB1F2C03D99121064802F0DCFB064AA6
S1132910064B002D08BF13460122A2401A6038BDA1
S113292086620000D762000040100450402004502A
S113293010B5044618B991211F4802F0C4FB23784E
S11329401B0613F0604F03D092211B4802F0BBFB1F
S1132950E3780F2B03D99521174802F0B4FB01212A
S11329602020FEF791FE01212120FEF78DFE012299
S1132970124B15205A60227812069A606178A27868
S113298042EA01429A61FF229A6200229A631A641F
S11329904FF000425A654FF0FF3203F500531A65B9
S11329A000F07AFD1520E17800F084FDBDE81040C8
S11329B0152000F03FBD00BF8662000000000450F7
S11329C02DE9F0410126C3B2072805460C461746F7
S11329D006FA03F603DDDE21354802F074FB1CB968
S11329E0DF21334802F06FFB236823F47C1323F0C8
S11329F00F031BB1E2212E4802F065FBA37A1B04EE
S1132A0013F47C0F03D0E721294802F05CFBE37A3E
S1132A101B0513F07E6F03D0E921254802F053FB18
S1132A20237B5B0513F0FE5F03D0EB21204802F00B
S1132A304AFB204BDFF884801E65226803F50053AF
S1132A4043F82520302202FB0585637B27F003072A
S1132A502B66E37AA27A1B0543EA0243227B43EA0C
S1132A604253EB652F6703F0BFF9134B5E65237A7E
S1132A7023B1D8F840303343C8F84030637A23B1E7
S1132A80D8F838303343C8F838302279A37943EA88
S1132A900243084A93616179E37943EA01430649B1
S1132AA08B61064B56639E64BDE8F04103F097B911
S1132AB086620000002004500010045000000450FE
S1132AC010B50124C3B2072804FA03F404DD40F26C
S1132AD07311074802F0F7FA03F086F9054B5A6DB3
S1132AE022EA04025A659C62BDE8104003F077B9FB
S1132AF0866200000000045010B50124C3B2072808
S1132B0004FA03F404DD40F291110A4802F0DBFAFE
S1132B1003F06AF9084BDA6A224208D15B6B9C43E2
S1132B200CBF0124002403F05AF9204610BD0024F0
S1132B30F9E700BF866200000000045070B501256B
S1132B40C3B20728044605FA03F504DD4FF4DC712B
S1132B50094802F0B8FA03F047F93022074B5E6BDC
S1132B6002FB04335C6E03F03AF935420ABFC4F346
S1132B700A100020013070BD86620000000004507D
S1132B8038B5022805460C4603D94C210C4802F0FE
S1132B909AFAE378627821785B0143EA8203227926
S1132BA00B4343EA02130C226A4302F1B04213635B
S1132BB0012902BFA278034B43F8252038BD00BF8A
S1132BC027630000E880035008B54FF0B0435A680B
S1132BD06AB958B15B680BB102F0CBFA01210D4B15
S1132BE0596002F0C6FA4FF0B043D96008BD5B6883
S1132BF00BB102F0BEFA0028F0D102F0BAFA4FF09D
S1132C00B0430222DA6002F0B4FA0122024B5A60A5
S1132C10ECE700BF001000580020005810B54FF03A
S1132C20B0414B680BB102F0A4FA01220B4BC478FB
S1132C305A608378934043EA8403447823430479B5
S1132C4043EA0413447943EAC4038B60044B5A6097
S1132C500378C3F10203CB6010BD00BF002000580D
S1132C6000100058024B1868C0F30740704700BFBB
S1132C700080E00FF8B507460C461D4616464AB9D3
S1132C804FF4A171314802F01EFA24B1402D09D14C
S1132C90062328E021B94FF42070FEF71FFD0446F7
S1132CA0402D42D0402D09D87DB1202D17D040F2BF
S1132CB08911BDE8F840254802F005BA602DF6D127
S1132CC0B6EB940F3CD804230DE0B6EB141F04D9E3
S1132CD04FF4BA711D4802F0F6F9102303E0B6EB85
S1132CE0D40F1CD808235E43730803EB4413B3FBCF
S1132CF0F6F3174E203BB6EBC30F4FEAC30404D2DE
S1132D004FF4D071114802F0DEF9BB68344023F06F
S1132D106003BB60BB681D43BD60FC61F8BD40F24D
S1132D2079110A4802F0CFF9DCE70623B4FBF3F388
S1132D30B342ADD24FF4BF71044802F0C4F9A7E71F
S1132D4040F28311014802F0BEF9BCE77863000049
S1132D50F8FF7F0070B506460C46154622B940F2CE
S1132D608E210C4802F0AFF924B94FF42070FEF71D
S1132D70B5FC04466D00013CB4FBF5F4064B25029A
S1132D8013EA042304D040F2B321024802F09BF971
S1132D90F56170BD78630000070080FF38B50E4B05
S1132DA0044698420D4608D003F58043984204D067
S1132DB04FF43371094802F086F9012204F5805377
S1132DC05A60EB43934003F00A036361656115B9EC
S1132DD004F50054626038BD00C0055078630000FB
S1132DE010B5174B0446984208D003F58043984227
S1132DF004D040F24241134802F065F9012204F57F
S1132E0080535A6040F6AA6341F2050263610023CD
S1132E100D49A360E365E26004F500522361E361B8
S1132E20E36491640649A3658C4203D123650023BE
S1132E30636502E005498C42F8D00123536010BD5C
S1132E4000C0055078630000FFFF01000000065039
S1132E5070B5444B044698420D4608D003F58043B0
S1132E60984204D040F2FD213F4802F02CF920465C
S1132E70FFF7B6FF012304F580567360AB7C1BB1EA
S1132E80A36843F08043A360EB7C5BB1354A2B7DA0
S1132E90944245D1A2F51032C2F88C31E36D43F06F
S1132EA08003E3652A8A6B7B20461343EA89134334
S1132EB0E3602B7BD5E90112FFF7DCFE6B7D1BB1D0
S1132EC0A36843F48033A360AB7D1BB1A36843F4D0
S1132ED00043A360EB7D2A7E1B07120502F4E00287
S1132EE003F0E0431343A365697E1E4A8B1E012B46
S1132EF01E4B1FD894421BD002F5804294420CBF53
S1132F0001224FF0FF3203EB4213022041F21C6214
S1132F100329985020D10423F3652B78636170BD95
S1132F20134A944204BFA2F52032C2F89C31B5E79B
S1132F300022E8E794420DD00D4A94420CBF0122CE
S1132F404FF0FF3203EB4213022042F21C620129CC
S1132F509850DFE70022F5E7042204F50053DA6510
S1132F60DBE700BF00C005507863000000C00350D9
S1132F700000065038B52F4B044698420D4608D041
S1132F8003F58043984204D040F269312A4802F0A4
S1132F909AF82046FFF724FF012204F580535A6073
S1132FA02B8AA26843F001031343AA7B43EA8223DA
S1132FB0A360A3682A7D43EA4273A360AB7C5BB140
S1132FC01C4AEB7C94422DD1A2F51032C2F88C310C
S1132FD0E36D43F08003E3652B7B2046D5E90112C2
S1132FE043F48053E360FFF7B5FE6B7B0BB1102312
S1132FF063616B7D1BB1A36843F48033A360AB7D35
S11330001BB1A36843F40043A360EB7D2A7E1B0736
S1133010120503F0E04302F4E0021343A3652B78A6
S1133020636138BD054A944204BFA2F52032C2F858
S11330309C31CDE700C005507863000000000650C5
S113304010B5044620B94FF40371124802F03BF85E
S11330502378E3B1013BDBB2022B05D80E4AD35CE3
S11330606278D340DB0704D440F20D21094802F012
S11330702AF80122617823788A4030214B4342F2B6
S1133080100103F1A04303F570335A5010BD40F210
S1133090FF13E5E7CA6300007E640000034BD3F826
S11330A02424D3F820041040704700BF00C003500C
S11330B02DE9F041037804460D4617460BB3013B56
S11330C0DBB2022B05D82C4AD35C6278D340DB07F1
S11330D003D45921294801F0F6FF294BD3F81033C2
S11330E01BB15A21254801F0EEFF0F2D0CD8DFE863
S11330F005F0332E2E2E2E2E2E2E2E2E2E2E2E2E4E
S11331002E2E40F2FF13E0E7AE211C4801F0DBFF56
S11331104FF000082046E7B102F020FC63782678DF
S1133120072B06EB46064FF00F014FEA061615D89B
S11331309B00144808FA03F29940304402F030F836
S1133140BDB920468FB1BDE8F04102F007BCA846E6
S1133150E0E7FFF775FFE1E7A846DFE7083B9B00E0
S1133160094808FA03F29940E7E7BDE8F041FFF7A0
S113317067BFBDE8F08100BF7E64000024640000E6
S113318000C0035004C003500CC0035070B50D467A
S1133190E8B1036813F4E07F03F03F06C3F382123F
S11331A010D0012A13D10B4C9B0603D591210A4858
S11331B001F089FF45B104F5805401230020B34098
S11331C0236070BD054CEFE704F50054F5E70E20CD
S11331D0F7E700BF68800050D762000064800050A9
S11331E030B58BB06C466C4D0FCD0FC42B686B4A59
S11331F02360FF238DF80130D2F84C3113F480237F
S113320040F0BE80D2F850218DF801309DF8013095
S11332106C46FF2B08BF25236846614D8DF80130AD
S1133220FEF75CFD3220FEF7BBFD0FCD0FC40FCDC2
S11332300FC495E8030084E80300584BD3F84C21ED
S1133240110340F18880A3F5FE431C88B4F5807F08
S113325028BF78248DF81940FEF73AFD044484F31E
S1133260080450488DF81840FDF798FB6846FEF7AF
S113327041FC3220FEF79AFD4B48FEF7A9FE4B4C69
S113328001213520FEF700FA0020FEF795FDFEF738
S113329055FE236F002023F0070343F00303236745
S11332A0FEF776FE236F23F474432367404BD3F871
S11332B0FC20D20153D4D4F88030C4F880303B4B86
S11332C0D3F8202122F0030242F00202C3F82021A5
S11332D0D3F8242122F0070242F00202C3F8242189
S11332E0D3F8802122F0030242F00102C3F88021C6
S11332F0D3F8402122F0030242F00202C3F8402135
S1133300D3F8602122F0030242F00202C3F86021E4
S1133310D3F8402222F0030242F00202C3F8402212
S1133320D3F8002222F0070242F00202C3F800227E
S1133330D3F8202222F0030242F00102C3F8202233
S1133340FEF7C0FB4FF0E0220020136943F00403B2
S113335013610BB030BDD3F85041E4B27AE7D3F82F
S1133360FC2022F08072C3F8FC20D4F88020C4F83A
S11333708020D3F8FC2042F08072C3F8FC209EE742
S11333804FF07E6393F89C2093F99C30002BFFF65A
S11333903DAF8DF8012039E7846400000080E00F20
S11333A09864000000F0490200B4C4040080005096
S11333B000ED00E007B56B46054A1068516803C389
S11333C06846FEF765FF002003B05DF804FB00BF0C
S11333D0C064000013B50024064A6846536F43F0E6
S11333E00103536700948DF80440FEF77FFE2046E6
S11333F002B010BD0040005010B5402804460DD85E
S113340001220A49630904F01F04A240203341F851
S11334102320BFF34F8FBFF36F8F10BD40F21D11F8
S1133420034801F050FE002CF7DBE9E700E100E07F
S1133430E864000010B54028044608D80123610957
S1133440074A04F01F04A34042F8213010BD4FF492
S11334509471044801F037FE002CF7DBEEE700BF5F
S113346000E100E0E864000010B53F28044604D9F8
S113347040F23311064801F026FE064B621153F860
S1133480220004F01F04E040C04300F0010010BD1E
S1133490E864000000E100E0002808DB01224309A1
S11334A0034900F01F008240603341F82320704735
S11334B000E100E038B500F11003502B04460D463E
S11334C004D94FF4EB710D4801F0FDFD0F2D04D923
S11334D040F2D711094801F0F6FD002CACBF04F10D
S11334E06044074B4FEA0515EDB2ABBF04F56144E8
S11334F004F00F0484F800531D5538BDE86400003F
S113350014ED00E010B502F06FFC0A4B1A786AB9AA
S113351001226FF004041A7002F061FC20460521B8
S11335200134FFF7C7FF402CF8D110BDBDE81040AF
S113353002F055BC2E15002010B5044602F04BFCD9
S1133540024B1C6002F042FC002010BD98130020C6
S113355010B502F040FC034B1C6802F037FC204617
S113356010BD00BF9813002010B50020144601F0D0
S113357032FE022804D018B1C321024801F0A3FD91
S1133580204610BD626500003021037A02464B4399
S113359003F1A04303F58023D86E07491B6F8842CB
S11335A008D113F0020006D05069536B1B1A58421D
S11335B058417047002070472F15002037B5044646
S11335C00DF10701007A02F085F920B14FF464711E
S11335D0114801F078FD9DF80730A3B1656BD4E97B
S11335E00B2313449D4201D8AA4204D940F29B31D3
S11335F0094801F068FDD4E90B0303449D4218BF58
S1133600284603B030BD3022237A534303F1A0434C
S113361003F58023DD6EE2E7D165000070B5044652
S11336200568FFF795FF844202D10020FFF784FF6D
S113363095F94E00FFF730FF95F94E00FFF7DCFED9
S1133640287A02F027F920B140F26F21104801F0E6
S11336503AFD287AFDF7B2FC20B140F273210C4800
S113366001F031FDFDF788FC38B10A4B984204D0D3
S113367040F27721064801F026FD00232846C4E9DC
S11336800033C4E90433A3602B6CBDE870401847D1
S1133690D1650000058000F02DE9F04188B01022CA
S11336A0044600210DEB020001F099FE4FF444732F
S11336B0ADF81230474B207ACDE90533FDF7FEFC17
S11336C020B140F2DD41444801F0FDFC2046FFF703
S11336D05BFF0346207A53B1FDF710FD20B140F2A1
S11336E0E2413D4801F0EFFC08B0BDE8F0810DF186
S11336F00B0102F0EFF820B14FF49D61364801F060
S1133700E2FC9DF80B30002B5DD12046FFF756FFFD
S113371003A90646207A02F0FFF820B14FF49E6117
S11337202D4801F0D0FC039B002B04DC40F2F24155
S1133730294801F0C8FC039B04F10C07013B10224B
S1133740002138469DB2D4F8048001F048FE3022AE
S1133750237AC5F30A0553432D0145F04075C4E9A6
S1133760035803F1A043666103F580231A6F217E99
S1133770520862F341012176196F227E27F0030774
S113378061F3000222761B6FA2699B0863F39F0218
S113379047F00207A26107972368104904AA0B6047
S11337A000940F4B207AFDF763FC20B140F21351D3
S11337B0094801F088FC207AFDF7A0FC002893D08A
S11337C040F217518DE79DF81C306FF341038DF8DB
S11337D01C30E1E72F150020D16500009C13002068
S11337E06952000038B50446007AFDF767FC20B141
S11337F040F27931084801F066FC2046FFF7C4FE28
S11338000546207AFDF77AFC20B140F27E31024869
S113381001F059FC284638BDD16500002DE9F04F70
S11338208DB098460023044692460891C8F80030AB
S1133830D8F80050BAEB050600F0D780089B5D1954
S113384000F0D3802046FFF7CDFF002840F0CD8064
S11338502046FFF7B3FE676BB8420FD9C71B94F835
S11338604530BE4228BF3E46002B40F0CA80324657
S11338702846616B01F0BEFDB14643E0D4E90B314B
S11338800B449F4204D340F2B6317D4801F01BFC47
S1133890D4E90B731F44636BFF1AE0D140F2594122
S11338A0774801F010FCDAE7616B0B7803F0FD0058
S11338B0112840F0A380A06C814205D1A3F111012D
S11338C04B424B4184F84C3009F1FF39636BA16CD6
S11338D001328B4203F1010308BFA3646363964280
S11338E0E2D1D4E90B23A16C1344994208BFA2642A
S11338F0A16C8A4201D88B4204D840F281416048CD
S113390001F0E1FB207AFDF7D9FB20B140F2CE3182
S11339105B4801F0D8FB207A0DF12F0101F0DAFFAA
S113392020B140F2D231564801F0CDFB2046FFF7DA
S113393045FE636B834698429DF82F306CD923B1C2
S113394040F2DA314E4801F0BEFBE26A636BB5B275
S1133950934259D1099304F11C0763681022384635
S11339600021079301F03BFD3022079B013D2362B8
S1133970099BC5F30A056362237A2D01534327F09B
S1133980030703F1A04345F0407547F0020703F530
S11339908023E5611F67636BD4E90B1233440A4447
S11339A0934208BF0B469342636304D340F22A4117
S11339B0334801F088FB636B9B4502D12046FFF737
S11339C06BFE207AFDF79AFB20B14FF488612C48F6
S11339D001F079FBD8F80030B9F1000F05D04B4461
S11339E05345C8F80030FFF423AFD8F80030002B5B
S11339F014BF00201B200DB0BDE8F08F05F8013B7B
S1133A0064E7B14600226AE7A38BC3F30A121544A4
S1133A1065F30E13A383BEE7207A93B9302358438A
S1133A2000F1A04000F58020426E436EC2F30A12FA
S1133A3023F4FF43324423F0700343EA0213436642
S1133A40A9E70023CDE90333CDE901630123009302
S1133A505A466368216801F04EFB20B140F21741D9
S1133A60074801F030FB3022237A534303F1A0438B
S1133A7003F580235A6E22F480125A668BE700BF46
S1133A80D16500002DE9F84304460D4690F84480C2
S1133A90DFF8B0908E18AE422AD094F8453093B136
S1133AA002F0A2F907462046FFF79CFE18B3A26C69
S1133AB0636B9A4204D040F28E21484601F003FB26
S1133AC0384602F08CF994F84C30002BE3D0B8F16E
S1133AD0000F06D02B780A2B03D10D212046A36BAF
S1133AE098472046A36B15F8011B98470028D2D0AD
S1133AF00020BDE8F8832046FFF760FDE16A013845
S1133B00884238BF206BD4F848C03CBF00F1FF3076
S1133B10401803469C450BD013F80129112A01D003
S1133B20132A07D1A2F111035A425A4184F84C20B6
S1133B30A064C5E7994282BF236B03F1FF335B188E
S1133B40E8E700BFD1650000F0B587B00C46154624
S1133B5006465022002120461F4601F040FC95E80D
S1133B600300EB682A69E362C4E90C232A7D84E834
S1133B70030084F84420AA7DA364012384F84C3014
S1133B8084F84D300C9B84F84520E3630D9BA763B8
S1133B9023642B7A84F84E30234B34607360234BB8
S1133BA0B360234B3361234B7361234BF360FDF705
S1133BB02BFA30B1214B984203D01027384607B076
S1133BC0F0BD002104F10800FDF7A6F90028F4D1A6
S1133BD0CDE903000290236B0193012300936368F2
S1133BE0E26A2168207A01F086FA07460028E4D1C7
S1133BF03022237A4FF48011534342F2640203F1DA
S1133C00A04303F58023995095F90800FFF744FC7D
S1133C1095F90800FFF70EFC3046FFF78DFC2046AF
S1133C20FFF73AFDCAE700BF853A00001D380000DF
S1133C305D520000635200001D360000038000F056
S1133C402DE9FF411C46544B0127019300230A9D93
S1133C5000939046CDE902770A46504B2946FFF778
S1133C6073FF0646002840F08F80236839462B6591
S1133C7063683A206B65637A85F85930237A85F84E
S1133C805830E37A85F85B30A37A85F85A30637B41
S1133C9085F85D30237B85F85C30E37B85F85F3005
S1133CA0A37B85F85E30FDF7EFFC3B460422617A86
S1133CB0207AFEF767FB3B460222E17AA07AFEF700
S1133CC061FB39466068FDF7DFFC88F80060414617
S1133CD02068FFF7BDF81422637C5B0103F1A04365
S1133CE003F57033C3F81C26617A227A42EA014252
S1133CF0C3F83426E17AA27A42EA0142C3F82C26B8
S1133D0085F8606098F81930032B43D8DFE803F096
S1133D103440021C022385F8603000230422E17B36
S1133D20A07BFEF72FFB022541F21C61627C1C4B39
S1133D3003EB42104550E07BA17BB13241EA0041E4
S1133D4003EB4213996017E0012785F860300222E3
S1133D500023617B207BFEF715FB637B227B617C68
S1133D6042EA03420F4B49015A500422236803F5E7
S1133D708053DA65002FD0D120680B4A00F5005338
S1133D8005219A64FFF70AF8304604B0BDE8F081D3
S1133D900027DAE72326F7E76D520000DD52000022
S1133DA000C0035024D60350FFFF0100F221014854
S1133DB001F089B9366600000346054A05491068D2
S1133DC003448B428CBF4FF0FF301360704700BF39
S1133DD0741500200080002070B502F005F8144E20
S1133DE005463478FCB9134B1C60134B1C60134B11
S1133DF01C6000F047F8012002F083F801F0B0FFE6
S1133E000F4B0246186020B9284601F0E8FF232032
S1133E1070BD234640F2E7310A4800F0BBF80A4B74
S1133E20186001233370284601F0D9FF0020EFE722
S1133E3032150020B4130020B0130020BC1300205E
S1133E40B813002018FCFFFFAC13002000B58DB0A0
S1133E5001238DF80F3001F09BFE00230146CDE9CC
S1133E600033074A0DF10F0304A802F01FF818B934
S1133E709DF80F30002BFBD10DB05DF804FB00BFA3
S1133E80A75E00001FB500241C4B18689A88029096
S1133E90D3F806009B7A00901948ADF80C208DF8F1
S1133EA0043001F08EF98DF8084001F01DFA8DF808
S1133EB00C0002A8FEF7B2FE694601208DF800400E
S1133EC0FEF75EFE4FF0B04240F2FF31936923F4F7
S1133ED07F7323F0030393610A4B5961936A13F0D0
S1133EE00803FBD113620120FEF76EFE0C20FFF7DE
S1133EF0D3FA0C20FFF79EFA04B010BD006700004F
S1133F00CC6400000020005810B501F06DFF4FF0A4
S1133F10B04304465B695A06074A03F0010003F004
S1133F20510348BF40F00200536101F043FE2046B4
S1133F30BDE8104001F053BF0020005810B50446FE
S1133F4001F07EFC4FF47A729042B0FBF2F105D29C
S1133F503621BDE810400C4801F0B5B80B4BB3FB5B
S1133F60F1F30B49884201D93C21F2E702FB04F04A
S1133F70B0FBF3F0022806D9BDE810400323B0FBE0
S1133F80F3F0FCF7DDB810BD0B67000040420F00F2
S1133F90E7CD9A3B53B94AB9002908BF00281CBF92
S1133FA04FF0FF314FF0FF3000F082B9ADF1080C53
S1133FB06DE904CE00F006F8DDF804E0DDE9022343
S1133FC004B070472DE9F04F099D0C46002B4DD1EC
S1133FD08A420F4684469646B2FA82F360D94BB1C0
S1133FE002FA03FEC3F120029F4000FA03FC20FA08
S1133FF002F217434FEA1E461FFA8EF44FEA1C42A0
S1134000B7FBF6F106FB117701FB04F042EA074225
S1134010904208D91EEB020201F1FF3702D290420E
S113402000F231813946121A1FFA8CFCB2FBF6F009
S113403006FB102200FB04F44CEA024C644508D948
S11340401EEB0C0C00F1FF3202D2644500F21E811B
S1134050104640EA0140ACEB040C002125B12CFAD7
S113406003F30022C5E90032BDE8F08F8B4205D985
S11340700DB1C5E9000100210846F5E7B3FA83F163
S113408000294DD1A342C0F0F380904280F0F0802B
S1134090064623460846002DE6D0C5E90063E3E75B
S11340A0002B40F0A3808A1A4FEA1E471FFA8EF6AF
S11340B00121B2FBF7F407FB14204FEA1C4242EA49
S11340C0004206FB04F090420FD91EEB020204F1F9
S11340D0FF382CBF4FF001094FF00009904203D97B
S11340E0B9F1000F00F0CC804446121A1FFA8CFC80
S11340F0B2FBF7F007FB102200FB06F64CEA024C79
S1134100664508D91EEB0C0C00F1FF3202D266455D
S113411000F2B3801046ACEB060C40EA04409DE785
S1134120C1F120068B4004FA01FE22FA06F720FAB8
S113413006FCF4408A401F434EEA0C0300FA01FED9
S11341404FEA17484FEA13491FFA87FCB4FBF8F00B
S113415008FB104449EA044400FB0CF9A1450ED9BC
S11341603C1900F1FF3A2CBF4FF0010B4FF0000B4C
S1134170A14503D9BBF1000F00F08B805046A4EB9E
S113418009041FFA83F9B4FBF8F308FB134403FB97
S11341900CFC49EA0444A44506D93C1903F1FF3850
S11341A001D2A4457BD8434643EA0040A4EB0C0467
S11341B0A0FB02984445CC46434602D306D1CE45E3
S11341C004D20138B9EB020C68EB0703002D6CD064
S11341D0BEEB0C0264EB030422FA01F304FA06F6C4
S11341E0CC4000211E43C5E900643DE702FA03FE0A
S11341F0C3F1200104FA03F200FA03FCCC404FEAB5
S11342001E4720FA01F11FFA8EF6B4FBF7F00A43B9
S113421007FB1044110C41EA044100FB06F48C42F4
S11342200ED91EEB010100F1FF382CBF4FF001093C
S11342304FF000098C4202D9B9F1000F2CD040464E
S1134240091B92B2B1FBF7F407FB141142EA0142D5
S113425004FB06F1914207D91EEB020204F1FF3878
S113426001D291421ED84446521A44EA004120E742
S1134270861A64EB030301200DE7F44402384AE78D
S1134280023C724431E702397244CCE6F444023809
S1134290DFE602383C4472E702387144D0E7023B5F
S11342A03C4481E7023C7244DEE72946DCE600BF79
S11342B0704700BF08B5064B044613B10021AFF3A5
S11342C00080044B1B6803B19847204600F0AEFF02
S11342D000000000F8140020002310B50446836099
S11342E0818119464366C28108228361C0E9003393
S11342F0C0E904335C3001F072F80D4B2462636250
S11343000C4BA3620C4BE3620C4B23630C4B9C429F
S113431006D003F16802944202D0D0339C4205D106
S113432004F15800BDE8104001F061B810BD00BFB1
S1134330595300007B530000B3530000D7530000CF
S1134340C0130020024A0349034800F0E7BF00BF3E
S1134350781500204B5600008815002041680C4B4E
S1134360994210B5044601D001F06FF9A168094BD8
S1134370994202D0204601F068F9E168064B99425F
S113438004D02046BDE8104001F05FB910BD00BF65
S1134390C0130020281400209014002010B50B4BEB
S11343A004210B4C0B4A20461A600022FFF794FFAD
S11343B004F1680001220921FFF78EFF04F1D00007
S11343C002221221BDE81040FFF786BFF814002036
S11343D0C013002045430000014801F009B800BFA4
S11343E034150020014801F004B800BF3415002042
S11343F010B50446FFF7F0FF236A1BB1BDE8104077
S1134400FFF7F0BF044B2362044B1B68002BF5D16C
S1134410FFF7C4FFF2E700BF5D430000F81400207B
S11344200FB407B5064904AB086853F8042B816838
S1134430019300F061F903B05DF804EB04B0704738
S11344408415002038B50023054D044608462B602A
S113445000F0EAFE431C02D12B6803B1236038BD8F
S1134460FC14002038B50446064D084611460022C7
S11344702A601A4600F0E2FE431C02D12B6803B105
S1134480236038BDFC14002038B50446064D0846A8
S1134490114600222A601A4600F0D2FE431C02D1C3
S11344A02B6803B1236038BDFC14002038B50446E2
S11344B0064D0846114600222A601A46FFF754F8B2
S11344C0431C02D12B6803B1236038BDFC140020C7
S11344D070B50D4D00260D4C641BA410A64209D1E5
S11344E00B4D00260B4C01F01BFD641BA410A642CF
S11344F005D170BD55F8043B01369847EEE755F8F1
S1134500043B01369847F2E71816002018160020DD
S1134510181600201C16002038B50546002941D085
S113452051F8043C0C1F002BB8BFE41800F0D8F875
S11345301D4A136833B9636014602846BDE83840E7
S113454000F0D4B8A34208D9206821188B4201BFD7
S113455019685B6809182160EDE71A465B680BB1BE
S1134560A342FAD911685018A0420BD12068014423
S1134570501811608342E0D118685B6808445360A6
S11345801060DAE702D90C232B60D6E720682118E3
S11345908B4202BF19685B680918636008BF216019
S11345A05460CAE738BD00BF0415002070B50F4E33
S11345B00C460546316811B900F038FB30602146DD
S11345C0284600F033FB431C03D14FF0FF34204650
S11345D070BDC41C24F00304A042F8D0211A28465C
S11345E000F024FB0130F2D1EFE700BF00150020FA
S11345F02DE9F041CD1C064625F0030508350C2DA8
S113460038BF0C25002D01DBA94204D90C233360EB
S11346100020BDE8F081314F00F062F83B681C4691
S113462044BB29463046FFF7C1FF431C044650D122
S11346303C682146002941D1002C44D023683046EF
S113464004EB030800F0F2FA80453CD121683046BF
S11346506D1A2946FFF7AAFF013034D023682B4492
S113466023603B68002B36D05A68A24229D100222D
S11346705A600EE02268521B1DD40B2A16D9611908
S1134680A342256018BF5960636808BF396062514E
S11346904B60304600F02AF804F10B00231D20F093
S11346A00700C21AB5D01B1AA350B2E7A34262682E
S11346B0DED13A60EDE723466468B1E70C46496809
S11346C0B8E71346CEE70C233046336000F00EF80B
S11346D09EE70560DDE75B60FFDE00BF0415002098
S11346E0014800F085BE00BF33150020014800F0EA
S11346F080BE00BF331500202DE9F04F0D469DB05C
S113470014469846064618B1036A0BB9FFF770FEC3
S11347106B6ED90705D4AB899A0502D4A86D00F055
S113472067FEAB891B0701D52B699BB92946304627
S113473000F026FA70B16B6EDC0704D54FF0FF3041
S11347401DB0BDE8F08FAB899805F7D4A86D00F0D3
S113475050FEF3E70023CDF80C804FF00109DFF899
S1134760B481099320238DF8293030238DF82A3021
S113477023469A4613F8012B0AB1252AF9D1BAEB3C
S1134780040B0BD05B4622462946304600F056FE09
S1134790013000F0A780099A5A4409929AF800302F
S11347A0002B00F09F8000234FF0FF320AF1010A32
S11347B0049307938DF853301A93CDE90523544697
S11347C00522544814F8011B00F0A5FF049AD8B937
S11347D0D10644BF20238DF85330130744BF2B2345
S11347E08DF853309AF800302A2B15D0079A544686
S11347F000204FF00A0C214611F8013B303B092BF5
S11348004BD9B0B1079214E0A0EB0803A24609FA11
S113481003F313430493D2E7039B191D1B68002B76
S11348200391BBBF5B4242F0020207930793B8BFF8
S1134830049223782E2B0AD163782A2B32D1039B3E
S113484002341A1D1B6843EAE37303920593DFF8ED
S1134850D4A003222178504600F05DFF38B1A0EBCC
S11348600A004022049B013482401343049314F849
S1134870011B062228488DF8281000F04CFF002860
S11348803FD0264B1BBB039B073323F0070308339E
S11348900393099B3B4409936AE70CFB02320C46E1
S11348A00120A8E7002301344FF00A0C19460593B0
S11348B0204610F8012B303A092A03D9002BC6D020
S11348C00591C4E70CFB012104460123F0E703AB87
S11348D02A4604A930460093114BAFF300800746E3
S11348E0781CD6D16B6ED90705D4AB899A0502D44E
S11348F0A86D00F07EFDAB895B063FF51FAF0998FC
S11349001EE703AB2A4604A930460093044B00F08B
S11349100BF8E4E76767000071670000000000001F
S11349203D5400006D6700002DE9FF470F7E91465E
S113493080460C46782F9A460C9E01F1430207D814
S1134940622F0AD8002F00F0DD80582F00F0C380BA
S113495004F1420684F842703AE0A7F16303152B90
S1134960F6D801A151F823F0C1490000D54900004F
S113497051490000514900005149000051490000CB
S1134980D549000051490000514900005149000037
S113499051490000EB4A0000634A0000A34A0000AA
S11349A051490000514900000D4B000051490000DD
S11349B0634A00005149000051490000AB4A00001D
S11349C033681A1D1B68326004F1420684F84230D1
S11349D00123A8E031682368081D30601E0601D554
S11349E00D6803E05D06FBD5B1F90050002D616848
S11349F078DA2D200029A16084F843002DDA6D4275
S1134A005D480A231646B5FBF3F103FB1157C75D56
S1134A1006F8017D2F460D46BB42F4D9082B0BD175
S1134A202368DF0708D5236961689942DEBF302314
S1134A3006F8013C06F1FF36921B22614B4603AA9D
S1134A4021464046CDF800A000F00AFD01306FD1A8
S1134A504FF0FF3004B0BDE8F08723F00403236077
S1134A60CDE721683368080653F8045B02D449068D
S1134A7048BFADB26F2F33603F4814BF0A230823E9
S1134A80002184F843106668002EA660BADB216812
S1134A9021F004012160002DB4D1002EB2D11646BC
S1134AA0BCE7236843F02003236078273348236856
S1134AB084F845701F06316851F8045B02D45F0620
S1134AC048BFADB23160D90744BF43F0200323602F
S1134AD01DB11023D4E72848E9E7236823F0200315
S1134AE02360F6E724480A23CDE733682568181DB8
S1134AF0616930602E061B6801D5196002E0680602
S1134B00FBD5198000231646236197E733680021FB
S1134B101A1D32601E686268304600F0FCFD08B160
S1134B20801B606063682361002384F8433085E759
S1134B302369324649464046D047013088D023682D
S1134B409B0714D4E068039B9842B8BF184681E7DA
S1134B500123324649464046D04701303FF478AFFE
S1134B600135E36803995B1AAB42F1DCEAE70025FF
S1134B7004F11906F5E700BF7867000089670000B3
S1134B8038B5294B05460C46186818B1036A0BB9A9
S1134B90FFF72EFCB4F90C30190722D4DA0607D437
S1134BA009222A6043F040034FF0FF30A38133E031
S1134BB0580712D5616B41B104F14403994202D004
S1134BC02846FFF7A9FC00236363A38923F0240389
S1134BD0A3810023636023692360A38943F008034E
S1134BE0A38123694BB9A38903F42073B3F5007F30
S1134BF003D02146284600F0C1FDB4F90C3013F06F
S1134C0001020AD00022A26062695242A2612269B2
S1134C1042B913F08000C5D138BD990758BF626905
S1134C20A260F4E70020F7E78415002038B50023DC
S1134C30054D044608462B60FFF7BEF8431C02D11D
S1134C402B6803B1236038BDFC14002038B5002361
S1134C50064D0446084611462B6000F0E8FA431C52
S1134C6002D12B6803B1236038BD00BFFC140020BF
S1134C7038B50023054D044608462B6000F0DCFAE5
S1134C80431C02D12B6803B1236038BDFC140020FF
S1134C9008B500F02BFBFBF7DDFA00F034FBFBF763
S1134CA0E5FAFAE708B50120FBF726FC2020FBF71C
S1134CB023FCBDE808404020FBF71EBC08B5FBF709
S1134CC07DFEFBF70FFFFBF723FBBDE8084000F078
S1134CD01AB870477047704770477047704708B5F7
S1134CE0FBF784FBBDE80840FBF720BB08B500F0E8
S1134CF008F8FFF771F8BDE80840FFF7F0BFFBF7CD
S1134D0083BB0F20704708B5082000F0DDF9BDE82B
S1134D100840082000F0E3B92DE9F74F002600FA17
S1134D2002F830460C9F019301FA02F207F10209DE
S1134D300199F3B2994205D80028B8BF404203B0A4
S1134D40BDE8F08F17F9263017F826E0002B37F866
S1134D502650ACBF4FF0010C4FF0FF3C1EF0700F1B
S1134D6039F826404FEA1E1A0EF0070145F30725CD
S1134D7006D149BB04FB0CFC00EB0C300136D7E731
S1134D8098FBF4F3002DBABFC5F1000B43FA0BF303
S1134D90AB401AF0060F14BF9A464FF0010AB9B19E
S1134DA092FBF4F4002DBABF6D422C41AC401EF0CE
S1134DB0060F14BF214601210CFB03F30AFB03F386
S1134DC0634301FB0300D9E74FF0010A5346E7E7C9
S1134DD001210C46F0E737B5052405461121284684
S1134DE00DF10702FBF7A4FC9DF8073003F0E00384
S1134DF0202B06D018B9013C14F0FF04EED103B007
S1134E0030BD0020FBE7F7B50F460DF10702112175
S1134E100546FBF78DFC044680BB9DF80730284609
S1134E2003F01F038DF80730FFF7D5FF044628BBB6
S1134E30E7B105260DF1060211212846FBF778FC9F
S1134E409DF806309DF8072003F01F039A4218D0FE
S1134E5050B9013E16F0FF068DF8073011D02846F0
S1134E60FFF7B9FF0028E5D0044607E002460B210E
S1134E702846FBF777FC002818BF0446204603B0F9
S1134E80F0BD3A460B212846FBF76CFC0028EBD119
S1134E9005260DF1060211212846FBF749FC9DF871
S1134EA006309DF8072003F01F039A42E6D100283C
S1134EB0DAD1013E16F0FF06EBD1DFE710B501228F
S1134EC00B21FBF74FFC04461E20FEF7BFFF2046D4
S1134ED010BD1121FFF797BFF7B506460D461746DB
S1134EE0FFF779FF044678BB11210DF10202304629
S1134EF0FBF71EFC9DF8023005F03F0503F01F038D
S1134F008DF8023002220A213046803D01AB8DF833
S1134F1004708DF80550FBF743FC0446A0B9052541
S1134F200DF1030211213046FBF702FC9DF803301A
S1134F309DF8022003F01F039A4205D138B9013DC0
S1134F4015F0FF05ECD12C46204603B0F0BD044615
S1134F50FAE738B505463220FEF778FF2846FFF712
S1134F60ADFF0F22044601212846FFF7B5FF782242
S1134F70022104442846FFF7AFFF712203210444B1
S1134F802846FFF7A9FF4022042104442846FFF7DE
S1134F90A3FF4D22062104442846FFF79DFFE1228A
S1134FA0072104442846FFF797FF402208210444C0
S1134FB02846FFF791FF41220A2104442846FFF7BF
S1134FC08BFFE1220B2104442846FFF785FF502282
S1134FD00C2104442846FFF77FFF4D220E21044490
S1134FE02846FFF779FF87220F2104442846FFF75C
S1134FF073FF4022102104442846FFF76DFF0F225F
S1135000044411462846FBF7ADFBC44214BF0120FB
S11350100020000138BD1FB50C466B4612210D223D
S1135020FBF7E4FB9DF800309DF8012023709DF808
S113503002301B0243EA02439DF80320190242EAAC
S1135040030248BF42F07F429DF8053062609DF83C
S113505004201B0243EA02439DF806201A431B0264
S113506048BF42F07F429DF80830A2609DF80720B7
S11350701B0243EA02439DF80920190242EA030293
S113508048BF42F07F429DF80B30E2609DF80A2051
S11350901B0243EA02439DF80C201A431B0248BF3B
S11350A042F07F42226104B010BDFEE700239A4221
S11350B000D1704710B550F8234041F82340013324
S11350C09A42F8D110BDFEE74FF060420123D2F8B6
S11350D0001E83400B430020C2F8003E70474FF08F
S11350E060410122D1F8003E824023EA02030020FD
S11350F0C1F8003E704710B588B004460E9800927F
S113510007900D98224606909DF8300005900B9864
S113511004909DF8280003900020CDE901300B464F
S11351200121FBF73BFE08B010BD08B500F09AFB67
S1135130BDE808400021FCF781BA0029CCBF012159
S11351400021FCF77BBA02214FF42070FCF774BEF7
S11351507047704770B5054614460E4600F03BFE96
S11351602B685C4034405C402C60BDE8704000F02B
S11351702DBE4FF0B0435A6812B19A6A002AFAD190
S1135180704783695A06FCD5C16383699B06FCD5C5
S1135190406AC0B2704783695B06FCD5C16370473F
S11351A070B5054614460E4600F015FE2B685C40AB
S11351B034405C402C60BDE8704000F007BE00F055
S11351C006B80121FDF7E2BF0021FDF7DFBF002093
S11351D07047FEF705B870B50C46154610B9FEF7D2
S11351E0B7F938B143682BB12A462146BDE870406F
S11351F000681847232070BDF7B50D4616461C46B7
S113520048B103B901AC87685FB1234632462946E9
S11352100068B84706E0FEF79BF904B901AC002822
S1135220F1D1232003B0F0BD00207047FEE74FF416
S1135230005300204B6070470120704700207047E6
S113524007B5002001AB0190FFF7D6FF01980028B5
S113525008BF4FF0FF3003B05DF804FB80F8441042
S1135260704790F8440070470020704710B504461A
S1135270026D93695906FCD5002394F859101A4617
S113528094F85800FDF77EF8002394F85B101A4652
S113529094F85A00FDF776F894F86030DA0707D5E9
S11352A0002394F85D101A4694F85C00FDF76AF840
S11352B094F860309B0707D5002394F85F101A46D2
S11352C094F85E00FDF75EF8206D0021FDF766FDA1
S11352D0606D0021FCF7D8F9002010BD08B5006D01
S11352E0FFF759FF002008BD0020704708B5FAF702
S11352F0E5FFFFF7E3FCFFF7F9FCFFF7EAFCBDE885
S11353000840FFF7E7BC08B5FFF7E5FCFFF7E4FC4E
S1135310FFF7E3FCBDE80840FFF7E0BC2DE9F843E4
S11353200746884614460026D4E90195B9F10109D7
S113533005D52468002CF7D13046BDE8F883AB8945
S1135340012B07D9B5F90E30013303D0294638466D
S1135350C04706436835E9E710B50C46B1F90E10AD
S1135360FFF792F80028ABBF636DA3891B1823F4E1
S11353708053ACBF6365A38110BD2DE9F0411F4686
S11353808B8905460C46DB05164605D5022300220B
S1135390B1F90E10FFF766F8A3893246B4F90E107E
S11353A0284623F48053A3813B46BDE8F041FFF730
S11353B07DB810B50C46B1F90E10FFF753F8431C35
S11353C0A38915BF606523F4805343F48053A381FC
S11353D018BFA38110BDB1F90E10FFF733B8024412
S11353E00346934200D1704703F8011BF9E7704765
S11353F0704770470A44431E914200D1704710B56C
S113540011F8014B914203F8014FF9D110BD936893
S1135410013B002B936010B408DA9469A34201DBCA
S11354200A2903D15DF8044B00F037B91368581CFE
S11354301060084619705DF8044B7047F8B50646CD
S11354400F461446D518AC4201D1002007E03A4675
S113545014F8011B3046FFF7DAFF431CF3D1F8BD03
S11354602DE9F047164698468A6807460B690C46AC
S1135470DDF820909342B8BF1346336091F843207F
S11354800AB1013333602368990642BF336802339B
S11354903360256815F0060506D104F1190AE3689E
S11354A032689B1AAB422BDC94F843302268003BF1
S11354B018BF0123920630D404F143024146384612
S11354C0C847013023D023681A3454F80A2C03F057
S11354D00603042B0ABF54F80E5C002533684FF012
S11354E0000608BFED1A54F8123C08BF25EAE5751A
S11354F09342C4BF9B1AED18B5421AD1002008E0AC
S11355000123524641463846C847013003D14FF083
S1135510FF30BDE8F0870135C1E7E1185A1C30209F
S11355200233224481F8430094F8451082F8431072
S1135530C2E70123224641463846C8470130E6D037
S11355400136D9E7B1F90C202DE9F04117070546DA
S11355500C4656D44B68002B02DC0B6C002B3DDD53
S1135560E66A002E3AD0002312F480522F68216A92
S11355702B6025D0626DA389580705D56368D21ABC
S1135580636B0BB1236CD21A216A0023E66A2846A6
S1135590B047411C24D00023636023692360A3899E
S11355A0DA0400D56065616B2F60B9B104F144037E
S11355B0994202D02846FEF7AFFF002363630DE053
S11355C001232846B047461C0246D4D12B68002B41
S11355D0D1D01D2B01D0162B2AD12F6000202EE014
S11355E02A68B4F90C3042B11D2A01D0162A21D1FF
S11355F00023636023692360D5E762602269226027
S1135600CEE70F69002FE9D093070E680F600CBF37
S11356104B690023A6EB07088B60B8F1000FDDDDB2
S113562043463A46216A2846A66AB047002808DC61
S1135630B4F90C3043F040034FF0FF30A381BDE8D0
S1135640F0810744A8EB0008E7E738B50B69054685
S11356500C4613B90025284638BD18B1036A0BB9A6
S1135660FEF7C6FEB4F90C30002BF3D0626ED007FF
S113567004D4990502D4A06DFFF7BAFE284621464A
S1135680FFF760FF636E0546DA07E4D4A3899B0540
S1135690E1D4A06DFFF7ADFEDDE7F8B50E46144684
S11356A0054618B1036A0BB9FEF7A2FEA369A3600D
S11356B0A3891A0701D5236943B921462846FFF770
S11356C05FFA18B14FF0FF373846F8BD2368F6B2D9
S11356D022693746981A6369834205DC21462846C5
S11356E0FFF7B3FF0028EDD1A368013BA360236853
S11356F05A1C22601E70431C62699A4204D0A3891A
S1135700DB07E1D50A2EDFD121462846FFF79DFFAE
S11357100028D9D0D6E7C9B20346024410B5934253
S1135720184601D1002003E0047801338C42F6D1FD
S113573010BD70B50C46B1F90E1096B0154600298F
S11357401E460CDAA389002113F0800F14BF4023F6
S11357504FF48063002031602B6016B070BD6A4640
S1135760FFF774FA0028EDDB019901F47041A1F50B
S11357700053594259414FF48063EBE78B89F7B5E5
S11357809D0706460C4607D504F1470323602361B1
S11357900123636103B0F0BD01AB6A46FFF7C9FFA3
S11357A0009F054630463946FEF722FF48B9B4F952
S11357B00C309A05EED423F0030343F00203A381D3
S11357C0E2E7A389206043F08003A381019BC4E93D
S11357D004075BB1B4F90E103046FFF749FA28B15B
S11357E0A38923F0030343F00103A381A3891D4389
S11357F0A581CFE7014B1868704700BF68150020EA
S11358000A4B1B6F03F00703013B032B03D8DFE8AC
S113581003F00A030608FEE7054B18687047054BBA
S1135820FBE7054870470548704700BF00800050FB
S1135830681500207015002080D54302002D310129
S113584008B5FFF7DDFF054B1B6FC3F303330133CB
S1135850B0FBF3F0024B186008BD00BF008000509D
S1135860641500200048704700B4C4040048704721
S1135870002D3101014B1868704700BF70150020DE
S11358800048704780D54302014B1868704700BF39
S11358906C15002008B50A4A127852B107280AD8B4
S11358A0084A02EB00131B7B3BB1FDF709F900200A
S11358B008BD0548FCE70548FAE70548F8E700BFD6
S11358C02A15002000130020028000F0018000F05F
S11358D0078000F010B50B4A0C46127862B1072815
S11358E00CD859B1084A02EB00131B7B43B1FDF7F6
S11358F003F92070002010BD0448FCE70448FAE7CF
S11359000448F8E72A15002000130020028000F064
S1135910018000F0078000F010B50B4A0C461278A5
S113592062B107280CD859B1084A02EB00131B7B5B
S113593043B1FDF703F92060002010BD0448FCE7E3
S11359400448FAE70448F8E72A1500200013002069
S1135950028000F0018000F0078000F010B50446DA
S113596020B940F2A3111248FFF7ADFB2378E3B14D
S1135970013BDBB2022B05D80E4AD35C6278D340DC
S1135980DB0704D44FF4D2710948FFF79CFB0122D2
S1135990617823788A4030214B4341F2100103F1AE
S11359A0A04303F570335A5010BD40F2FF13E5E7EE
S11359B0CA6300007E64000030B50E4C4161236868
S11359C08BB9206083600DE0891A9A681D46416195
S11359D06AB113465A698A42F6D935B1A860521A97
S11359E083605A6130BD0025F4E72060F7E79860D2
S11359F08260F7E7B41300200D490B68A0B10022C0
S1135A00A3B1834203D1836822B90B6003E01A4631
S1135A109B68F5E7936083680BB9002070475A6967
S1135A2041690A445A61F8E722207047022070470E
S1135A30B413002038B500F05DFA0025084B094C7A
S1135A401A682368C31A2AB123B15169994203D34E
S1135A50C91A5161206038BD55615B1A9268F2E73A
S1135A60B4130020B013002038B5154D2B682BB3A8
S1135A705B69A3B1134A022014681C4400F041FA84
S1135A80204600F03BF900230F492A680B7022B12D
S1135A90D08880070AD501230B70002038BD02206E
S1135AA000F02FFA022000F083F9ECE79268002A54
S1135AB0F3D050690344012BEAD9EEE72220EDE745
S1135AC0B4130020B01300203115002070B5164621
S1135AD09DF81420C0E903360271049ABDF8183009
S1135AE00260002204460D468260C380EEB900F0D5
S1135AF001FA2844A0619DB12E4600F06CF90546D8
S1135B00FFF798FF31462046FFF756FF104B1B68FE
S1135B10A34201D1FFF7A8FF284600F057F902E09D
S1135B20E36865617BB9002070BD00F0E3F930449F
S1135B30A061002DE0D1E3686561002BDDD0204633
S1135B4021689847D9E7204621689847EBE700BFCA
S1135B50B413002038B50C460546A8B1A1B1002302
S1135B600B7000F041F90121084B1B6833B900F0B8
S1135B7036F9002038BD9D4204D121702278002AD4
S1135B80F9D0F4E79B68F1E72220F3E7B41300208F
S1135B9038B50021044640F2E730054B4FF47A72E1
S1135BA01D680023E5FB0401FEF7F4F938BD00BFCE
S1135BB0B81300202DE9F843C207044607D54B4A21
S1135BC0136801331360FFF735FFFFF74DFFA30799
S1135BD040F18A8000F008F94FF000080546464677
S1135BE0FFF728FF424F3C680CB16369A3B1002260
S1135BF0404B012E1A7003D118F0020F18BF1E700B
S1135C00FFF732FF222802D1022000F0B9F828461B
S1135C10BDE8F84300F0E3B823465A693AB91A7963
S1135C202179914288BF1C469B68002BF5D12846F8
S1135C3000F0D5F82569DDB100F05CF9A269A0EBAC
S1135C4002084FEAE873A84573F1000311DB2369E6
S1135C501344A361E36813B1204621689847B4F85C
S1135C60068000F0C1F801360546FFF7E3FEBAE707
S1135C70A84600F0B9F881462046FFF7BDFE484625
S1135C8000F0ADF82369002BE4D0B5EB08054FEA2A
S1135C90E87363EB4303012D73F1000304DA4FF45B
S1135CA0C9611548FFF70FFAA38B33B1E28B134494
S1135CB09BB2B3F57A7F0FD2E38300F095F8804668
S1135CC029462046FFF778FEA3692269404613441B
S1135CD0A36100F084F8BDE7A3F57A73E383A369B5
S1135CE0013D013BA361E8E7BDE8F883BC13002054
